:020000040000FA
:0400000007EF00F016
:0A0008005882F2ED05F0E0EF09F078
:100800000020636D00001250800B1F6E12501224E6
:10081000266E11BE26802650D8B40DD02628D8A426
:1008200008D0000E0F6E000E106E000E116E000E3E
:10083000126E118E06D0000E0F6E000E106E000E9E
:10084000116E000E126E1650800B1F1A16501624D1
:10085000276E15BE27802750D8B40DD02728D8A4DE
:1008600008D0000E136E000E146E000E156E000EF2
:10087000166E158E06D0000E136E000E146E000E4E
:10088000156E000E166E1350141015101610D8A405
:1008900017D0000E0F6E000E106E000E116E000EBF
:1008A000126E800E11127F0E12121F5012120FC004
:1008B0000FF010C010F011C011F012C012F01200B1
:1008C0002650D8A409D0000E0F6E000E106E000E38
:1008D000116E000E126E1200275026C017F0186A13
:1008E000175E000E185A7F0E1724206E000E182077
:1008F000216E0FC01BF010C01CF011C01DF012C003
:100900001EF0000E0F6E000E106E000E116E000E27
:10091000126E000E226E000E236E000E246E000E6C
:10092000256E000E276E28D02750D8B411D0D8904D
:100930001B361C361D361E36D8900F361036113633
:10094000123625BE0F80D89022362336243625361F
:1009500013501B5C14501C5815501D5816501E582F
:10096000D8A009D0258C13501B5E14501C5A15506A
:100970001D5A16501E5A272A190E2764D5D71B5008
:100980001C101D101E10D8B411D022800FD0D8908A
:100990000F3610361136123625BE0F80D89022360B
:1009A0002336243625362006D8A0210611AEEFD7EF
:1009B000000E276E25AE17D0FF0E2214176EFF0E05
:1009C0002314186EFF0E2414196E7F0E25141A6E50
:1009D0001750181019101A10D8B403D0010E276E32
:1009E00002D00FB0FBD72750D8B41FD0010E0F266E
:1009F000000E10221122122212A017D00FC017F0E1
:100A000010C018F011C019F012C01AF01A341A32BE
:100A100019321832173217C00FF018C010F019C071
:100A200011F01AC012F0204A212A21BE10D0215004
:100A300003E12028D8A00BD0000E216E2068000E04
:100A40000F6E000E106E000E116E000E126E21BEA3
:100A500005D0215011E12004D8B00ED0000E216E37
:100A6000000E206E000E0F6E000E106E000E116E46
:100A7000000E126E000E1F6E20C026F026A002D0BF
:100A8000118E01D0119ED8902630126E0ED7000E16
:100A9000176E000E166E000E196E000E186E000E08
:100AA000136E000E126E000E156E000E146E0DD039
:100AB000144A152AF40E141808E11504D8A405D018
:100AC000000E026E000E016E120081A0F1D7500ED2
:100AD000E82EFED781A00CD0010E18C009F019C075
:100AE0000AF0D89009360A360910186E0A5004D058
:100AF000D8901834186E1934196E000E156E000E49
:100B0000146E08D0144A152AF40E141803E11504C3
:100B1000D8B4D6D781B0F6D7124A132A13BEC3D79A
:100B2000135004E1080E125CD8A0BDD70D0E162498
:100B3000D96E000E1720DA6E18C0DFFF164A172A8A
:100B400017BEA9D7175004E1050E165CD8A0A3D78D
:100B50001150096E0A6A0E500DC00BF00C6A0B267C
:100B6000000E0C220F500B26000E0C2210500B26EC
:100B7000000E0C2209500B18A3E10A500C18D8A43F
:100B80009FD70D50096E0A6A01C0D9FF02C0DAFF73
:100B900009C0DEFF0AC0DDFF0E50096E0A6A03C0FD
:100BA000D9FF04C0DAFF09C0DEFF0AC0DDFF0F5025
:100BB000096E0A6A05C0D9FF06C0DAFF09C0DEFF68
:100BC0000AC0DDFF1050096E0A6A07C0D9FF08C0CD
:100BD000DAFF09C0DEFF0AC0DDFF000E026E010E63
:100BE000016E12000600D9CF36F0DACF37F0F6CF1B
:100BF00038F0F7CF39F0F8CF3AF0F5CF3BF09E9AC6
:100C000075D09CEC08F08A0E016E000E026E000E8C
:100C1000046E140E036EB5EC0AF0485022EC0BF093
:100C2000475022EC0BF02E0E22EC0BF0465022EC3B
:100C30000BF0540E016E000E026E000E046E030ED9
:100C4000036EB5EC0AF019EC0BF068D0D80E016E0B
:100C5000000E026E000E046E0F0E036EB5EC0AF06D
:100C6000455022EC0BF0445022EC0BF02E0E22ECFF
:100C70000BF0435022EC0BF0250E22EC0BF0E3D7E7
:100C8000C60E016E000E026E000E046E110E036E93
:100C9000B5EC0AF03CEC07F0415022EC0BF0405070
:100CA00022EC0BF0010E016E080E026E000E046EB7
:100CB000030E036EB5EC0AF0C6D7C00E016E010E2E
:100CC000026E000E046E140E036EB5EC0AF0BBD774
:100CD000C4EC07F0B8D7600E016E000E026E000E75
:100CE000046E140E036EB5EC0AF0ADD7AE50346E40
:100CF000356A3550000AD8A4EED73450610AD8B40A
:100D000080D7030AD8B4A2D7010AD8B4B9D7070A42
:100D1000D8B4D3D7090AD8B4DBD7DDD73BC0F5FFA9
:100D20003AC0F8FF39C0F7FF38C0F6FF37C0DAFF26
:100D300036C0D9FF58921100096E0950D8A404AEEC
:100D40001AD001C005F002C006F003C007F004C0CD
:100D500008F0051E061E071E081E052A000E0622A4
:100D60000722082205C00BF006C00CF007C00DF0EA
:100D700008C00EF008D001C00BF002C00CF003C098
:100D80000DF004C00EF00150021003100410D8A49E
:100D900009D0000E016E000E026E000E036E000EF2
:100DA000046E1200960E0A6E06D00A2AD8900E32F1
:100DB0000D320C320B32000E0B14056E000E0C14AB
:100DC000066E000E0D14076EFE0E0E14086E055012
:100DD000061007100810D8B40DD0E7D70A2A010E64
:100DE0000B26000E0C220D220E22D8900E320D3250
:100DF0000C320B32000E0B14056E000E0C14066E36
:100E0000000E0D14076EFF0E0E14086E055006102E
:100E100007100810D8B407D0E1D70A06D8900B36CF
:100E20000C360D360E360DBE03D0020E0A60F5D715
:100E30000AA00D9ED8900A320AC005F0066A076A19
:100E4000086A05C008F0076A066A056A05500B12B1
:100E500006500C1207500D1208500E120950D8A45B
:100E600004AE01D00E8E0BC001F00CC002F00DC01C
:100E700003F00EC004F01200000ECF6E000ECE6E16
:100E80008A821A0EE82EFED700D08A9281A8FED759
:100E9000CD8081B8FED7CD90CECF32F0CFCF33F01A
:100EA000AE0E136E470E146E6B0E156E420E166E5E
:100EB00032C001F033C002F0000E02BEFF0E036E1E
:100EC000046E010E9CEC06F001C00FF002C010F0A1
:100ED00003C011F004C012F003EC04F00FC028F0BE
:100EE00010C029F011C02AF012C02BF0FDEC08F060
:100EF00028C032F029C033F0010E3224326E000EC9
:100F00003320336E33BE1200335004E1020E325CE4
:100F1000D8A0120033BE06D0910E325C010E3358B9
:100F2000D8B0120032C007F033C008F0000E0A6ECD
:100F3000640E096E9EEC09F00750300F426E000EF1
:100F4000046E640E036E32C001F033C002F01DEC7B
:100F50000AF001C007F002C008F0000E0A6E0A0E87
:100F6000096E9EEC09F00750300F416E32C001F05F
:100F700033C002F0000E046E0A0E036E1DEC0AF080
:100F80000150300F406E1200B20E016E000E026E64
:100F9000000E046E120E036EB5EC0AF019EC0BF0A5
:100FA000000E016E010E026E000E046E230E036E23
:100FB000B5EC0AF019EC0BF09E0E016E000E026EFD
:100FC000000E046E130E036EB5EC0AF019EC0BF074
:100FD000240E016E010E026E000E046E220E036ED0
:100FE000B5EC0AF019EC0BF0690E016E010E026E01
:100FF000000E046E1F0E036EB5EC0AF019EC0BF038
:10100000470E016E010E026E000E046E200E036E7E
:10101000B5EC0AF019EC0BF0A90E016E010E026E90
:10102000000E046E160E036EB5EC0AF019EC0BF010
:10103000750E016E000E026E000E046E130E036E2E
:10104000B5EC0AF019EC0BF0000E016E010E026E09
:10105000000E046E230E036EB5EC0AF019EC0BF0D3
:1010600012002D2D2D2D2D2D2D2D2D2D2D2D2D2DF8
:101070002D2D2D2D2D2D2D2D2D2D2D2D2D2D2D2DA0
:101080002D2D2D2D2D002841292056697375616C59
:10109000697A6172206C612074656D70657261742B
:1010A000757261202843292000284329205669733E
:1010B00075616C697A6172206C6120646973746116
:1010C0006E6369612028636D29200028422920561B
:1010D000697375616C697A6172206C612068756DE5
:1010E000656461642028255248292020005550431A
:1010F00020323031392D32204D6963726F636F6E4B
:1011000074726F6C61646F72657300284429205695
:10111000697375616C697A6172206175746F72654B
:1011200073004761627269656C6120566567612072
:101130004C6F70657A20200000EC0BF055EC0AF043
:1011400001C03EF002C03FF03E503F10D8B4120044
:101150004B0E016E000E026E490E036E000E046E01
:101160004F0E056E000E066E4D0E076E000E086ED9
:1011700047EC05F001C03CF002C03DF03C503D1092
:10118000D8B412004FC007F050C008F0000E0A6E2D
:101190000A0E096E9EEC09F00750300F486E4FC0E2
:1011A00001F050C002F0000E046E0A0E036E1DEC3A
:1011B0000AF00150300F476E4D50300F466E4BC055
:1011C00007F04CC008F0000E0A6E0A0E096E9EEC85
:1011D00009F00750300F456E4BC001F04CC002F0D3
:1011E000000E046E0A0E036E1DEC0AF00150300F63
:1011F000446E4D50300F436E12002A342B34316E42
:101200003150D8A409D0000E286E000E296E000EB1
:101210002A6E000E2B6E120028C02CF029C02DF073
:101220002AC02EF02BC02FF0200E05D0D8902F32E0
:101230002E322D322C32E82EF9D72C50306E2A8ED9
:10124000FF0E2816FF0E2916FF0E2A16000E2B166B
:10125000960E315E31AE0DD03150800A970FD8A076
:10126000D2D7D8902B322A3229322832313EF9D7C0
:101270000DD01F0E316407D0C6D7D8902836293636
:101280002A362B3631063150D8A4F7D73050D8B48F
:1012900008D02B1E2A1E291E286C000E29222A2265
:1012A0002B2228C028F029C029F02AC02AF02BC000
:1012B0002BF012005465636C61206572726F6E656D
:1012C000612020202020202000286D2920566973CD
:1012D00075616C697A6172206D656E7520004C6174
:1012E0002074656D70657261747572612065733A02
:1012F00020004F7063696F6E65732064656C206DAC
:10130000656E753A20004269656E76656E69646F38
:101310007320616C204C423420004C61206469735E
:1013200074616E6369612065733A20004C612068C6
:10133000756D656461642065733A2000000E0C6E63
:101340000AAE06D0096C0A1ED8B00A2A010E0C6E2D
:1013500008AE06D0076C081ED8B0082A010E0C1A79
:10136000000E0E6E000E0D6E09500A10D8B41CD07F
:10137000010E0B6E04D0D89009360A360B2A0AAE3D
:10138000FAD7D8900D360E360950075C0A50085827
:10139000D8A005D00950075E0A50085A0D80D89091
:1013A0000A3209320B2EEDD70C50D8B404D00D6C94
:1013B0000E1ED8B00E2A0DC007F00EC008F01200A5
:1013C000620EF66E100EF76E000EF86E01EE00F073
:1013D00010EED6F00900F5CFEEFFE550E150FAE14E
:1013E000B40EF66E120EF76E000EF86E00EE60F0A0
:1013F00010EE88F00900F5CFEEFFE550E150FAE17C
:10140000500EF66E160EF76E000EF86E00EE51F0EE
:1014100010EE07F00900F5CFEEFFE550E150FAE1DC
:1014200000EE3CF0150EEE6AE806FDE15890589289
:10143000000EF86E0001F0EF0AF0000E066E02AE2C
:1014400006D0016C021ED8B0022A010E066E04AE50
:1014500004D0036C041ED8B0042A03500410D8B47E
:1014600018D0010E056E04D0D89003360436052A34
:1014700004AEFAD70350015C04500258D8A004D03F
:101480000350015E0450025AD89004320332052EF4
:10149000F1D70650D8B404D0016C021ED8B0022A8D
:1014A00001C001F002C002F01200000E046E000E36
:1014B000036E0DD0034A042AF40E031808E1040455
:1014C000D8A405D0000E026E000E016E120081B08D
:1014D000F1D7000E046E000E036E08D0034A042AF2
:1014E000F40E031803E10404D8B4ECD781A0F6D7B6
:1014F000000E046E000E036E08D0034A042AF40E98
:10150000031803E10404D8B4DDD781B0F6D7000E88
:10151000026E010E016E1200000E0001EE6F1BD074
:10152000EE51E825EC6F000EE921ED6FECC0F6FFFF
:10153000EDC0F7FFF86A070EF76403D00800F55016
:1015400005D0F6CFD9FFF7CFDAFFDF50AD6EACA2F2
:10155000FED70001EE2BEE51EC6FED6BEA51EC5D26
:10156000EB51ED59D8B01200DBD7000E076E1AD040
:1015700007500124056E000E0220066E05C0F6FF1E
:1015800006C0F7FFF86A070EF76403D00800F550AD
:1015900005D0F6CFD9FFF7CFDAFFDF50AD6EACA2A2
:1015A000FED7072A0750056E066A0350055C0450F3
:1015B0000658D8B01200DCD7B896AC98AC94000EA0
:1015C000B06E0C0EAF6EAC8AAB88AB8E949CF28E74
:1015D000F28C9D8A0F0EC16E9388B00ECD6E1200F4
:1015E000DCEC0AF08B0E0001E86F010EE96F000ED3
:1015F000EB6F1D0EEA6F8CEC0AF010EC0BF0FFD7CE
:1016000093908A90BC0E016E020EE82EFED7012E3A
:10161000FCD78A80350EE82EFED700F093801200AA
:101620000A0EAD6EACA2FED70D0EAD6EACB21200BE
:10163000FDD70A0EAD6EACA2FED70D0EAD6EACB2EC
:101640001200FDD7016E01C0ADFFACB21200FDD794
:0716500025200020432000CB
:020000040020DA
:08000000FFFFFFFFFFFFFFFF00
:020000040030CA
:0E0000000802181FFF8181FF0FC00FE00F40A4
:00000001FF
